{
  "contractName": "Login",
  "abi": [
    {
      "constant": true,
      "inputs": [],
      "name": "numberOfUsers",
      "outputs": [
        {
          "name": "",
          "type": "uint256"
        }
      ],
      "payable": false,
      "stateMutability": "view",
      "type": "function",
      "signature": "0x75ce46a7"
    },
    {
      "constant": true,
      "inputs": [],
      "name": "owner",
      "outputs": [
        {
          "name": "ownerAddress",
          "type": "address"
        },
        {
          "name": "name",
          "type": "string"
        }
      ],
      "payable": false,
      "stateMutability": "view",
      "type": "function",
      "signature": "0x8da5cb5b"
    },
    {
      "constant": true,
      "inputs": [],
      "name": "currentlyloggedin",
      "outputs": [
        {
          "name": "",
          "type": "uint256"
        }
      ],
      "payable": false,
      "stateMutability": "view",
      "type": "function",
      "signature": "0xa5c48ede"
    },
    {
      "constant": true,
      "inputs": [
        {
          "name": "",
          "type": "address"
        },
        {
          "name": "",
          "type": "address"
        }
      ],
      "name": "Users",
      "outputs": [
        {
          "name": "age",
          "type": "uint256"
        },
        {
          "name": "name",
          "type": "string"
        },
        {
          "name": "emailId",
          "type": "string"
        },
        {
          "name": "password",
          "type": "string"
        },
        {
          "name": "occupation",
          "type": "string"
        },
        {
          "name": "gender",
          "type": "string"
        },
        {
          "name": "userAddress",
          "type": "address"
        },
        {
          "name": "exists",
          "type": "bool"
        }
      ],
      "payable": false,
      "stateMutability": "view",
      "type": "function",
      "signature": "0xf8a6f1bd"
    },
    {
      "inputs": [
        {
          "name": "_name",
          "type": "string"
        }
      ],
      "payable": false,
      "stateMutability": "nonpayable",
      "type": "constructor",
      "signature": "constructor"
    },
    {
      "constant": false,
      "inputs": [
        {
          "name": "_age",
          "type": "uint256"
        },
        {
          "name": "_name",
          "type": "string"
        },
        {
          "name": "_emailId",
          "type": "string"
        },
        {
          "name": "_password",
          "type": "string"
        },
        {
          "name": "_userAddress",
          "type": "address"
        },
        {
          "name": "_gender",
          "type": "string"
        },
        {
          "name": "_occupation",
          "type": "string"
        }
      ],
      "name": "signup",
      "outputs": [],
      "payable": false,
      "stateMutability": "nonpayable",
      "type": "function",
      "signature": "0x363f5714"
    },
    {
      "constant": false,
      "inputs": [
        {
          "name": "_name",
          "type": "string"
        },
        {
          "name": "_password",
          "type": "string"
        }
      ],
      "name": "login",
      "outputs": [],
      "payable": false,
      "stateMutability": "nonpayable",
      "type": "function",
      "signature": "0x58467dbc"
    }
  ],
  "bytecode": "0x60806040523480156200001157600080fd5b50604051620011be380380620011be833981018060405260208110156200003757600080fd5b8101908080516401000000008111156200005057600080fd5b820160208101848111156200006457600080fd5b81516401000000008111828201871017156200007f57600080fd5b50506040805180820190915233808252602080830184905260028054600160a060020a031916909217825583519396509194509250620000c591600391860190620000d4565b50506000805550620001799050565b828054600181600116156101000203166002900490600052602060002090601f016020900481019282601f106200011757805160ff191683800117855562000147565b8280016001018555821562000147579182015b82811115620001475782518255916020019190600101906200012a565b506200015592915062000159565b5090565b6200017691905b8082111562000155576000815560010162000160565b90565b61103580620001896000396000f3fe6080604052600436106100775763ffffffff7c0100000000000000000000000000000000000000000000000000000000600035041663363f5714811461007c57806358467dbc1461036557806375ce46a71461049f5780638da5cb5b146104c6578063a5c48ede1461056c578063f8a6f1bd14610581575b600080fd5b34801561008857600080fd5b50610363600480360360e081101561009f57600080fd5b813591908101906040810160208201356401000000008111156100c157600080fd5b8201836020820111156100d357600080fd5b803590602001918460018302840111640100000000831117156100f557600080fd5b91908080601f016020809104026020016040519081016040528093929190818152602001838380828437600092019190915250929594936020810193503591505064010000000081111561014857600080fd5b82018360208201111561015a57600080fd5b8035906020019184600183028401116401000000008311171561017c57600080fd5b91908080601f01602080910402602001604051908101604052809392919081815260200183838082843760009201919091525092959493602081019350359150506401000000008111156101cf57600080fd5b8201836020820111156101e157600080fd5b8035906020019184600183028401116401000000008311171561020357600080fd5b91908080601f0160208091040260200160405190810160405280939291908181526020018383808284376000920191909152509295600160a060020a0385351695909490935060408101925060200135905064010000000081111561026757600080fd5b82018360208201111561027957600080fd5b8035906020019184600183028401116401000000008311171561029b57600080fd5b91908080601f01602080910402602001604051908101604052809392919081815260200183838082843760009201919091525092959493602081019350359150506401000000008111156102ee57600080fd5b82018360208201111561030057600080fd5b8035906020019184600183028401116401000000008311171561032257600080fd5b91908080601f0160208091040260200160405190810160405280939291908181526020018383808284376000920191909152509295506107f7945050505050565b005b34801561037157600080fd5b506103636004803603604081101561038857600080fd5b8101906020810181356401000000008111156103a357600080fd5b8201836020820111156103b557600080fd5b803590602001918460018302840111640100000000831117156103d757600080fd5b91908080601f016020809104026020016040519081016040528093929190818152602001838380828437600092019190915250929594936020810193503591505064010000000081111561042a57600080fd5b82018360208201111561043c57600080fd5b8035906020019184600183028401116401000000008311171561045e57600080fd5b91908080601f016020809104026020016040519081016040528093929190818152602001838380828437600092019190915250929550610971945050505050565b3480156104ab57600080fd5b506104b4610ba7565b60408051918252519081900360200190f35b3480156104d257600080fd5b506104db610bad565b6040518083600160a060020a0316600160a060020a0316815260200180602001828103825283818151815260200191508051906020019080838360005b83811015610530578181015183820152602001610518565b50505050905090810190601f16801561055d5780820380516001836020036101000a031916815260200191505b50935050505060405180910390f35b34801561057857600080fd5b506104b4610c4b565b34801561058d57600080fd5b506105bc600480360360408110156105a457600080fd5b50600160a060020a0381358116916020013516610c51565b60405180898152602001806020018060200180602001806020018060200188600160a060020a0316600160a060020a031681526020018715151515815260200186810386528d818151815260200191508051906020019080838360005b83811015610631578181015183820152602001610619565b50505050905090810190601f16801561065e5780820380516001836020036101000a031916815260200191505b5086810385528c5181528c516020918201918e019080838360005b83811015610691578181015183820152602001610679565b50505050905090810190601f1680156106be5780820380516001836020036101000a031916815260200191505b5086810384528b5181528b516020918201918d019080838360005b838110156106f15781810151838201526020016106d9565b50505050905090810190601f16801561071e5780820380516001836020036101000a031916815260200191505b5086810383528a5181528a516020918201918c019080838360005b83811015610751578181015183820152602001610739565b50505050905090810190601f16801561077e5780820380516001836020036101000a031916815260200191505b5086810382528951815289516020918201918b019080838360005b838110156107b1578181015183820152602001610799565b50505050905090810190601f1680156107de5780820380516001836020036101000a031916815260200191505b509d505050505050505050505050505060405180910390f35b60408051610100810182528881526020808201898152828401899052606083018890526080830185905260a08301869052600160a060020a0380881660c0850152600160e0850181905260025490911660009081526004845285812033825284529490942083518155905180519394919361087a93928501929190910190610f6e565b5060408201518051610896916002840191602090910190610f6e565b50606082015180516108b2916003840191602090910190610f6e565b50608082015180516108ce916004840191602090910190610f6e565b5060a082015180516108ea916005840191602090910190610f6e565b5060c08201516006909101805460e0909301511515740100000000000000000000000000000000000000000274ff000000000000000000000000000000000000000019600160a060020a0390931673ffffffffffffffffffffffffffffffffffffffff19909416939093179190911691909117905550506000805460010190555050505050565b600254600160a060020a0316600090815260046020908152604080832033845290915290206006015474010000000000000000000000000000000000000000900460ff161515610a4857604080517f08c379a000000000000000000000000000000000000000000000000000000000815260206004820152602660248201527f4e6f7420616e206578697374696e67206d656d6265722c20706c65617365207360448201527f69676e2075700000000000000000000000000000000000000000000000000000606482015290519081900360840190fd5b815160208084019190912060028054600160a060020a031660009081526004845260408082203383529094528390209251600193840180549394909391928392859260001990821615610100020116048015610adb5780601f10610ab9576101008083540402835291820191610adb565b820191906000526020600020905b815481529060010190602001808311610ac7575b50509150506040518091039020148015610b955750805160208083019190912060028054600160a060020a031660009081526004845260408082203383529094528390209251600390930180549293909290918291849160001960018316156101000201909116048015610b865780601f10610b64576101008083540402835291820191610b86565b820191906000526020600020905b815481529060010190602001808311610b72575b50509150506040518091039020145b15610ba35760018054810190555b5050565b60005481565b600280546003805460408051602061010060018516150260001901909316869004601f8101849004840282018401909252818152600160a060020a0390941694939291830182828015610c415780601f10610c1657610100808354040283529160200191610c41565b820191906000526020600020905b815481529060010190602001808311610c2457829003601f168201915b5050505050905082565b60015481565b60046020908152600092835260408084208252918352918190208054600180830180548551600293821615610100026000190190911692909204601f8101879004870283018701909552848252919492939092830182828015610cf55780601f10610cca57610100808354040283529160200191610cf5565b820191906000526020600020905b815481529060010190602001808311610cd857829003601f168201915b50505060028085018054604080516020601f6000196101006001871615020190941695909504928301859004850281018501909152818152959695945090925090830182828015610d875780601f10610d5c57610100808354040283529160200191610d87565b820191906000526020600020905b815481529060010190602001808311610d6a57829003601f168201915b5050505060038301805460408051602060026001851615610100026000190190941693909304601f8101849004840282018401909252818152949594935090830182828015610e175780601f10610dec57610100808354040283529160200191610e17565b820191906000526020600020905b815481529060010190602001808311610dfa57829003601f168201915b5050505060048301805460408051602060026001851615610100026000190190941693909304601f8101849004840282018401909252818152949594935090830182828015610ea75780601f10610e7c57610100808354040283529160200191610ea7565b820191906000526020600020905b815481529060010190602001808311610e8a57829003601f168201915b5050505060058301805460408051602060026001851615610100026000190190941693909304601f8101849004840282018401909252818152949594935090830182828015610f375780601f10610f0c57610100808354040283529160200191610f37565b820191906000526020600020905b815481529060010190602001808311610f1a57829003601f168201915b50505060069093015491925050600160a060020a0381169060ff740100000000000000000000000000000000000000009091041688565b828054600181600116156101000203166002900490600052602060002090601f016020900481019282601f10610faf57805160ff1916838001178555610fdc565b82800160010185558215610fdc579182015b82811115610fdc578251825591602001919060010190610fc1565b50610fe8929150610fec565b5090565b61100691905b80821115610fe85760008155600101610ff2565b9056fea165627a7a723058209827c555fccb3f7c31f66e8f3ac7de21e22fb96e43c0be3172c04f83786aaff50029",
  "source": "pragma solidity >=0.4.21 <0.7.0;\r\n\r\ncontract Login{\r\n    \r\n    //owner of the hospital will deploy this contract\r\n    struct ownerStruct  {\r\n        address payable ownerAddress;\r\n        string name;\r\n    }\r\n    uint public numberOfUsers;\r\n    uint public currentlyloggedin;\r\n    ownerStruct public owner ;\r\n    constructor(string memory _name) public{\r\n        owner = ownerStruct(msg.sender,_name);\r\n        numberOfUsers = 0;\r\n    }\r\n    //User \r\n    struct user{\r\n        uint age;\r\n        string name;\r\n        string emailId;\r\n        string password;\r\n        string occupation;\r\n        string gender;\r\n        address userAddress;\r\n        bool exists;\r\n    }\r\n    //mapping the user to the owner's address\r\n    mapping(address => mapping(address => user))public Users;\r\n    \r\n    //signing up\r\n    function signup(uint _age, string memory _name, string memory _emailId,string memory _password, address _userAddress,string memory _gender,string memory _occupation)public{\r\n        Users[owner.ownerAddress][msg.sender] = user(_age,_name,_emailId,_password,_occupation,_gender, _userAddress,true);\r\n        numberOfUsers++;\r\n    }\r\n    \r\n    //login function with a check modifier\r\n    function login(string memory _name, string memory _password) public check{\r\n     if(keccak256(bytes(Users[owner.ownerAddress][msg.sender].name)) == keccak256(bytes(_name)) && keccak256(bytes(Users[owner.ownerAddress][msg.sender].password)) == keccak256(bytes(_password)) ){\r\n         currentlyloggedin++;\r\n     }else{\r\n         \r\n     }\r\n    }\r\n    \r\n    //modifier for checking whether a user is a member or not\r\n    modifier check(){\r\n          require(Users[owner.ownerAddress][msg.sender].exists,\"Not an existing member, please sign up\");\r\n        _;\r\n    }\r\n}",
  "sourcePath": "D:/MinorProject/17 JUNE 2020/contracts/Login.sol",
  "compiler": {
    "name": "solc",
    "version": "0.5.0+commit.1d4f565a.Emscripten.clang"
  },
  "schemaVersion": "3.0.1",
  "updatedAt": "2020-06-17T15:20:33.599Z",
  "devdoc": {
    "methods": {}
  },
  "userdoc": {
    "methods": {}
  }
}